{
  "address": "0x841ce48F9446C8E281D3F1444cB859b4A6D0738C",
  "abi": [
    {
      "anonymous": false,
      "inputs": [
        {
          "indexed": false,
          "internalType": "bytes32",
          "name": "transferId",
          "type": "bytes32"
        },
        {
          "indexed": false,
          "internalType": "address",
          "name": "sender",
          "type": "address"
        },
        {
          "indexed": false,
          "internalType": "address",
          "name": "receiver",
          "type": "address"
        },
        {
          "indexed": false,
          "internalType": "address",
          "name": "token",
          "type": "address"
        },
        {
          "indexed": false,
          "internalType": "uint256",
          "name": "amount",
          "type": "uint256"
        },
        {
          "indexed": false,
          "internalType": "bytes32",
          "name": "hashlock",
          "type": "bytes32"
        },
        {
          "indexed": false,
          "internalType": "uint64",
          "name": "timelock",
          "type": "uint64"
        },
        {
          "indexed": false,
          "internalType": "uint64",
          "name": "srcChainId",
          "type": "uint64"
        },
        {
          "indexed": false,
          "internalType": "bytes32",
          "name": "srcTransferId",
          "type": "bytes32"
        }
      ],
      "name": "LogNewTransferIn",
      "type": "event"
    },
    {
      "anonymous": false,
      "inputs": [
        {
          "indexed": false,
          "internalType": "bytes32",
          "name": "transferId",
          "type": "bytes32"
        },
        {
          "indexed": false,
          "internalType": "address",
          "name": "sender",
          "type": "address"
        },
        {
          "indexed": false,
          "internalType": "address",
          "name": "receiver",
          "type": "address"
        },
        {
          "indexed": false,
          "internalType": "address",
          "name": "token",
          "type": "address"
        },
        {
          "indexed": false,
          "internalType": "uint256",
          "name": "amount",
          "type": "uint256"
        },
        {
          "indexed": false,
          "internalType": "bytes32",
          "name": "hashlock",
          "type": "bytes32"
        },
        {
          "indexed": false,
          "internalType": "uint64",
          "name": "timelock",
          "type": "uint64"
        },
        {
          "indexed": false,
          "internalType": "uint64",
          "name": "dstChainId",
          "type": "uint64"
        },
        {
          "indexed": false,
          "internalType": "address",
          "name": "dstAddress",
          "type": "address"
        }
      ],
      "name": "LogNewTransferOut",
      "type": "event"
    },
    {
      "anonymous": false,
      "inputs": [
        {
          "indexed": false,
          "internalType": "bytes32",
          "name": "transferId",
          "type": "bytes32"
        },
        {
          "indexed": false,
          "internalType": "bytes32",
          "name": "preimage",
          "type": "bytes32"
        }
      ],
      "name": "LogTransferConfirmed",
      "type": "event"
    },
    {
      "anonymous": false,
      "inputs": [
        {
          "indexed": false,
          "internalType": "bytes32",
          "name": "transferId",
          "type": "bytes32"
        }
      ],
      "name": "LogTransferRefunded",
      "type": "event"
    },
    {
      "inputs": [
        {
          "internalType": "bytes32",
          "name": "_transferId",
          "type": "bytes32"
        },
        {
          "internalType": "bytes32",
          "name": "_preimage",
          "type": "bytes32"
        }
      ],
      "name": "confirm",
      "outputs": [],
      "stateMutability": "nonpayable",
      "type": "function"
    },
    {
      "inputs": [
        {
          "internalType": "bytes32",
          "name": "_transferId",
          "type": "bytes32"
        }
      ],
      "name": "refund",
      "outputs": [],
      "stateMutability": "nonpayable",
      "type": "function"
    },
    {
      "inputs": [
        {
          "internalType": "address",
          "name": "_dstAddress",
          "type": "address"
        },
        {
          "internalType": "address",
          "name": "_token",
          "type": "address"
        },
        {
          "internalType": "uint256",
          "name": "_amount",
          "type": "uint256"
        },
        {
          "internalType": "bytes32",
          "name": "_hashlock",
          "type": "bytes32"
        },
        {
          "internalType": "uint64",
          "name": "_timelock",
          "type": "uint64"
        },
        {
          "internalType": "uint64",
          "name": "_srcChainId",
          "type": "uint64"
        },
        {
          "internalType": "bytes32",
          "name": "_srcTransferId",
          "type": "bytes32"
        }
      ],
      "name": "transferIn",
      "outputs": [],
      "stateMutability": "nonpayable",
      "type": "function"
    },
    {
      "inputs": [
        {
          "internalType": "address",
          "name": "_bridge",
          "type": "address"
        },
        {
          "internalType": "address",
          "name": "_token",
          "type": "address"
        },
        {
          "internalType": "uint256",
          "name": "_amount",
          "type": "uint256"
        },
        {
          "internalType": "bytes32",
          "name": "_hashlock",
          "type": "bytes32"
        },
        {
          "internalType": "uint64",
          "name": "_timelock",
          "type": "uint64"
        },
        {
          "internalType": "uint64",
          "name": "_dstChainId",
          "type": "uint64"
        },
        {
          "internalType": "address",
          "name": "_dstAddress",
          "type": "address"
        }
      ],
      "name": "transferOut",
      "outputs": [],
      "stateMutability": "nonpayable",
      "type": "function"
    },
    {
      "inputs": [
        {
          "internalType": "bytes32",
          "name": "",
          "type": "bytes32"
        }
      ],
      "name": "transfers",
      "outputs": [
        {
          "internalType": "address",
          "name": "sender",
          "type": "address"
        },
        {
          "internalType": "address",
          "name": "receiver",
          "type": "address"
        },
        {
          "internalType": "address",
          "name": "token",
          "type": "address"
        },
        {
          "internalType": "uint256",
          "name": "amount",
          "type": "uint256"
        },
        {
          "internalType": "bytes32",
          "name": "hashlock",
          "type": "bytes32"
        },
        {
          "internalType": "uint64",
          "name": "timelock",
          "type": "uint64"
        },
        {
          "internalType": "enum CBridge.TransferStatus",
          "name": "status",
          "type": "uint8"
        }
      ],
      "stateMutability": "view",
      "type": "function"
    }
  ],
  "transactionHash": "0x9ca4541e409008d16b4c253e8a94a3124419f53c80ab1eefb9a900ed5659d62a",
  "args": [],
  "solcInputHash": "a115709fc0a890f0ae252966b4f069b1",
  "bytecode": "0x608060405234801561001057600080fd5b50610fa8806100206000396000f3fe608060405234801561001057600080fd5b50600436106100675760003560e01c806357f784ba1161005057806357f784ba146101045780637249fbb614610117578063f63eba251461012a57600080fd5b80633c64f04b1461006c57806346b40027146100ef575b600080fd5b6100d361007a366004610e50565b6000602081905290815260409020805460018201546002830154600384015460048501546005909501546001600160a01b03948516959385169490921692909167ffffffffffffffff811690600160401b900460ff1687565b6040516100e69796959493929190610ea5565b60405180910390f35b6101026100fd366004610d49565b61013d565b005b610102610112366004610e68565b6101de565b610102610125366004610e50565b610417565b610102610138366004610dc0565b61062d565b600061014c88888888886106bf565b604080518281523360208201526001600160a01b03808c1692820192909252818a1660608201526080810189905260a0810188905267ffffffffffffffff80881660c0830152861660e08201529084166101008201529091507f2991ed59ec037d5602bdc81fb1f3fec360f9e68fd3c1a4efb49fb3f66a88e02190610120015b60405180910390a15050505050505050565b600082815260208181526040808320815160e08101835281546001600160a01b0390811682526001830154811694820194909452600282015490931691830191909152600380820154606084015260048201546080840152600582015467ffffffffffffffff811660a085015260c0840191600160401b90910460ff169081111561027957634e487b7160e01b600052602160045260246000fd5b600381111561029857634e487b7160e01b600052602160045260246000fd5b905250905060018160c0015160038111156102c357634e487b7160e01b600052602160045260246000fd5b146103155760405162461bcd60e51b815260206004820152601460248201527f6e6f742070656e64696e67207472616e7366657200000000000000000000000060448201526064015b60405180910390fd5b604080516020810184905201604051602081830303815290604052805190602001208160800151146103895760405162461bcd60e51b815260206004820152601260248201527f696e636f727265637420707265696d6167650000000000000000000000000000604482015260640161030c565b60008381526020818152604091829020600501805468ff00000000000000001916680200000000000000001790558201516060830151918301516103d9926001600160a01b0390911691906109cc565b60408051848152602081018490527fb7ae890c7a4721f7ed769dabfeee74f0e0f5bcdaad9cab432ccea4d9fa435b50910160405180910390a1505050565b600081815260208181526040808320815160e08101835281546001600160a01b0390811682526001830154811694820194909452600282015490931691830191909152600380820154606084015260048201546080840152600582015467ffffffffffffffff811660a085015260c0840191600160401b90910460ff16908111156104b257634e487b7160e01b600052602160045260246000fd5b60038111156104d157634e487b7160e01b600052602160045260246000fd5b905250905060018160c0015160038111156104fc57634e487b7160e01b600052602160045260246000fd5b146105495760405162461bcd60e51b815260206004820152601460248201527f6e6f742070656e64696e67207472616e73666572000000000000000000000000604482015260640161030c565b428160a0015167ffffffffffffffff1611156105a75760405162461bcd60e51b815260206004820152601760248201527f74696d656c6f636b206e6f742079657420706173736564000000000000000000604482015260640161030c565b60008281526020819052604090819020600501805468ff000000000000000019166803000000000000000017905581516060830151918301516105f6926001600160a01b0390911691906109cc565b6040518281527f70a8f332cabb778f79acc5b97cbb4543970a2f1a34bd0773e4b3012931f752dc9060200160405180910390a15050565b600061063c88888888886106bf565b604080518281523360208201526001600160a01b03808c169282019290925290891660608201526080810188905260a0810187905267ffffffffffffffff80871660c0830152851660e082015261010081018490529091507f252a438c8e02dde6c26723283b3c95b1bf2550b882734770523f1d6767636f9c90610120016101cc565b60008084116107105760405162461bcd60e51b815260206004820152600e60248201527f696e76616c696420616d6f756e74000000000000000000000000000000000000604482015260640161030c565b428267ffffffffffffffff16116107695760405162461bcd60e51b815260206004820152601060248201527f696e76616c69642074696d656c6f636b00000000000000000000000000000000604482015260640161030c565b6040516bffffffffffffffffffffffff1933606090811b8216602084015288901b1660348201526048810184905246606882015260880160408051601f198184030181529190528051602090910120905060008082815260208190526040902060050154600160401b900460ff1660038111156107f657634e487b7160e01b600052602160045260246000fd5b146108435760405162461bcd60e51b815260206004820152600f60248201527f7472616e73666572206578697374730000000000000000000000000000000000604482015260640161030c565b6108586001600160a01b038616333087610a61565b6040518060e00160405280336001600160a01b03168152602001876001600160a01b03168152602001866001600160a01b031681526020018581526020018481526020018367ffffffffffffffff168152602001600160038111156108cd57634e487b7160e01b600052602160045260246000fd5b905260008281526020818152604091829020835181546001600160a01b039182167fffffffffffffffffffffffff000000000000000000000000000000000000000091821617835592850151600183018054918316918516919091179055928401516002820180549190941692169190911790915560608201516003808301919091556080830151600483015560a083015160058301805467ffffffffffffffff90921667ffffffffffffffff1983168117825560c086015193919268ffffffffffffffffff19161790600160401b9084908111156109bc57634e487b7160e01b600052602160045260246000fd5b0217905550505095945050505050565b6040516001600160a01b038316602482015260448101829052610a5c90849063a9059cbb60e01b906064015b60408051601f198184030181529190526020810180517bffffffffffffffffffffffffffffffffffffffffffffffffffffffff167fffffffff0000000000000000000000000000000000000000000000000000000090931692909217909152610a9f565b505050565b6040516001600160a01b0380851660248301528316604482015260648101829052610a999085906323b872dd60e01b906084016109f8565b50505050565b6000610af4826040518060400160405280602081526020017f5361666545524332303a206c6f772d6c6576656c2063616c6c206661696c6564815250856001600160a01b0316610b849092919063ffffffff16565b805190915015610a5c5780806020019051810190610b129190610e30565b610a5c5760405162461bcd60e51b815260206004820152602a60248201527f5361666545524332303a204552433230206f7065726174696f6e20646964206e60448201527f6f74207375636365656400000000000000000000000000000000000000000000606482015260840161030c565b6060610b938484600085610b9d565b90505b9392505050565b606082471015610c155760405162461bcd60e51b815260206004820152602660248201527f416464726573733a20696e73756666696369656e742062616c616e636520666f60448201527f722063616c6c0000000000000000000000000000000000000000000000000000606482015260840161030c565b843b610c635760405162461bcd60e51b815260206004820152601d60248201527f416464726573733a2063616c6c20746f206e6f6e2d636f6e7472616374000000604482015260640161030c565b600080866001600160a01b03168587604051610c7f9190610e89565b60006040518083038185875af1925050503d8060008114610cbc576040519150601f19603f3d011682016040523d82523d6000602084013e610cc1565b606091505b5091509150610cd1828286610cdc565b979650505050505050565b60608315610ceb575081610b96565b825115610cfb5782518084602001fd5b8160405162461bcd60e51b815260040161030c9190610f13565b80356001600160a01b0381168114610d2c57600080fd5b919050565b803567ffffffffffffffff81168114610d2c57600080fd5b600080600080600080600060e0888a031215610d63578283fd5b610d6c88610d15565b9650610d7a60208901610d15565b95506040880135945060608801359350610d9660808901610d31565b9250610da460a08901610d31565b9150610db260c08901610d15565b905092959891949750929550565b600080600080600080600060e0888a031215610dda578283fd5b610de388610d15565b9650610df160208901610d15565b95506040880135945060608801359350610e0d60808901610d31565b9250610e1b60a08901610d31565b915060c0880135905092959891949750929550565b600060208284031215610e41578081fd5b81518015158114610b96578182fd5b600060208284031215610e61578081fd5b5035919050565b60008060408385031215610e7a578182fd5b50508035926020909101359150565b60008251610e9b818460208701610f46565b9190910192915050565b6001600160a01b038881168252878116602083015286166040820152606081018590526080810184905267ffffffffffffffff831660a082015260e0810160048310610f0157634e487b7160e01b600052602160045260246000fd5b8260c083015298975050505050505050565b6020815260008251806020840152610f32816040850160208701610f46565b601f01601f19169190910160400192915050565b60005b83811015610f61578181015183820152602001610f49565b83811115610a99575050600091015256fea26469706673582212203f576b683b544859852e2612f7dba9316d83a2b49a4f7764b07147c61931e03a64736f6c63430008040033",
  "devdoc": {
    "kind": "dev",
    "methods": {
      "confirm(bytes32,bytes32)": {
        "details": "confirm a transfer.",
        "params": {
          "_preimage": "key for the hashlock",
          "_transferId": "Id of pending transfer."
        }
      },
      "refund(bytes32)": {
        "details": "refund a transfer after timeout.",
        "params": {
          "_transferId": "Id of pending transfer."
        }
      },
      "transferIn(address,address,uint256,bytes32,uint64,uint64,bytes32)": {
        "details": "transfer sets up a new inbound transfer with hash time lock."
      },
      "transferOut(address,address,uint256,bytes32,uint64,uint64,address)": {
        "details": "transfer sets up a new outbound transfer with hash time lock."
      }
    },
    "version": 1
  },
  "userdoc": {
    "kind": "user",
    "methods": {},
    "version": 1
  },
  "storageLayout": {
    "storage": [
      {
        "astId": 1187,
        "contract": "contracts/CBridge.sol:CBridge",
        "label": "transfers",
        "offset": 0,
        "slot": "0",
        "type": "t_mapping(t_bytes32,t_struct(Transfer)1182_storage)"
      }
    ],
    "types": {
      "t_address": {
        "encoding": "inplace",
        "label": "address",
        "numberOfBytes": "20"
      },
      "t_bytes32": {
        "encoding": "inplace",
        "label": "bytes32",
        "numberOfBytes": "32"
      },
      "t_enum(TransferStatus)1166": {
        "encoding": "inplace",
        "label": "enum CBridge.TransferStatus",
        "numberOfBytes": "1"
      },
      "t_mapping(t_bytes32,t_struct(Transfer)1182_storage)": {
        "encoding": "mapping",
        "key": "t_bytes32",
        "label": "mapping(bytes32 => struct CBridge.Transfer)",
        "numberOfBytes": "32",
        "value": "t_struct(Transfer)1182_storage"
      },
      "t_struct(Transfer)1182_storage": {
        "encoding": "inplace",
        "label": "struct CBridge.Transfer",
        "members": [
          {
            "astId": 1168,
            "contract": "contracts/CBridge.sol:CBridge",
            "label": "sender",
            "offset": 0,
            "slot": "0",
            "type": "t_address"
          },
          {
            "astId": 1170,
            "contract": "contracts/CBridge.sol:CBridge",
            "label": "receiver",
            "offset": 0,
            "slot": "1",
            "type": "t_address"
          },
          {
            "astId": 1172,
            "contract": "contracts/CBridge.sol:CBridge",
            "label": "token",
            "offset": 0,
            "slot": "2",
            "type": "t_address"
          },
          {
            "astId": 1174,
            "contract": "contracts/CBridge.sol:CBridge",
            "label": "amount",
            "offset": 0,
            "slot": "3",
            "type": "t_uint256"
          },
          {
            "astId": 1176,
            "contract": "contracts/CBridge.sol:CBridge",
            "label": "hashlock",
            "offset": 0,
            "slot": "4",
            "type": "t_bytes32"
          },
          {
            "astId": 1178,
            "contract": "contracts/CBridge.sol:CBridge",
            "label": "timelock",
            "offset": 0,
            "slot": "5",
            "type": "t_uint64"
          },
          {
            "astId": 1181,
            "contract": "contracts/CBridge.sol:CBridge",
            "label": "status",
            "offset": 8,
            "slot": "5",
            "type": "t_enum(TransferStatus)1166"
          }
        ],
        "numberOfBytes": "192"
      },
      "t_uint256": {
        "encoding": "inplace",
        "label": "uint256",
        "numberOfBytes": "32"
      },
      "t_uint64": {
        "encoding": "inplace",
        "label": "uint64",
        "numberOfBytes": "8"
      }
    }
  }
}