{
  "address": "0x841ce48F9446C8E281D3F1444cB859b4A6D0738C",
  "abi": [
    {
      "anonymous": false,
      "inputs": [
        {
          "indexed": false,
          "internalType": "bytes32",
          "name": "transferId",
          "type": "bytes32"
        },
        {
          "indexed": false,
          "internalType": "address",
          "name": "sender",
          "type": "address"
        },
        {
          "indexed": false,
          "internalType": "address",
          "name": "receiver",
          "type": "address"
        },
        {
          "indexed": false,
          "internalType": "address",
          "name": "token",
          "type": "address"
        },
        {
          "indexed": false,
          "internalType": "uint256",
          "name": "amount",
          "type": "uint256"
        },
        {
          "indexed": false,
          "internalType": "bytes32",
          "name": "hashlock",
          "type": "bytes32"
        },
        {
          "indexed": false,
          "internalType": "uint64",
          "name": "timelock",
          "type": "uint64"
        },
        {
          "indexed": false,
          "internalType": "uint64",
          "name": "srcChainId",
          "type": "uint64"
        },
        {
          "indexed": false,
          "internalType": "bytes32",
          "name": "srcTransferId",
          "type": "bytes32"
        }
      ],
      "name": "LogNewTransferIn",
      "type": "event"
    },
    {
      "anonymous": false,
      "inputs": [
        {
          "indexed": false,
          "internalType": "bytes32",
          "name": "transferId",
          "type": "bytes32"
        },
        {
          "indexed": false,
          "internalType": "address",
          "name": "sender",
          "type": "address"
        },
        {
          "indexed": false,
          "internalType": "address",
          "name": "receiver",
          "type": "address"
        },
        {
          "indexed": false,
          "internalType": "address",
          "name": "token",
          "type": "address"
        },
        {
          "indexed": false,
          "internalType": "uint256",
          "name": "amount",
          "type": "uint256"
        },
        {
          "indexed": false,
          "internalType": "bytes32",
          "name": "hashlock",
          "type": "bytes32"
        },
        {
          "indexed": false,
          "internalType": "uint64",
          "name": "timelock",
          "type": "uint64"
        },
        {
          "indexed": false,
          "internalType": "uint64",
          "name": "dstChainId",
          "type": "uint64"
        },
        {
          "indexed": false,
          "internalType": "address",
          "name": "dstAddress",
          "type": "address"
        }
      ],
      "name": "LogNewTransferOut",
      "type": "event"
    },
    {
      "anonymous": false,
      "inputs": [
        {
          "indexed": false,
          "internalType": "bytes32",
          "name": "transferId",
          "type": "bytes32"
        },
        {
          "indexed": false,
          "internalType": "bytes32",
          "name": "preimage",
          "type": "bytes32"
        }
      ],
      "name": "LogTransferConfirmed",
      "type": "event"
    },
    {
      "anonymous": false,
      "inputs": [
        {
          "indexed": false,
          "internalType": "bytes32",
          "name": "transferId",
          "type": "bytes32"
        }
      ],
      "name": "LogTransferRefunded",
      "type": "event"
    },
    {
      "inputs": [
        {
          "internalType": "bytes32",
          "name": "_transferId",
          "type": "bytes32"
        },
        {
          "internalType": "bytes32",
          "name": "_preimage",
          "type": "bytes32"
        }
      ],
      "name": "confirm",
      "outputs": [],
      "stateMutability": "nonpayable",
      "type": "function"
    },
    {
      "inputs": [
        {
          "internalType": "bytes32",
          "name": "_transferId",
          "type": "bytes32"
        }
      ],
      "name": "refund",
      "outputs": [],
      "stateMutability": "nonpayable",
      "type": "function"
    },
    {
      "inputs": [
        {
          "internalType": "address",
          "name": "_dstAddress",
          "type": "address"
        },
        {
          "internalType": "address",
          "name": "_token",
          "type": "address"
        },
        {
          "internalType": "uint256",
          "name": "_amount",
          "type": "uint256"
        },
        {
          "internalType": "bytes32",
          "name": "_hashlock",
          "type": "bytes32"
        },
        {
          "internalType": "uint64",
          "name": "_timelock",
          "type": "uint64"
        },
        {
          "internalType": "uint64",
          "name": "_srcChainId",
          "type": "uint64"
        },
        {
          "internalType": "bytes32",
          "name": "_srcTransferId",
          "type": "bytes32"
        }
      ],
      "name": "transferIn",
      "outputs": [],
      "stateMutability": "nonpayable",
      "type": "function"
    },
    {
      "inputs": [
        {
          "internalType": "address",
          "name": "_bridge",
          "type": "address"
        },
        {
          "internalType": "address",
          "name": "_token",
          "type": "address"
        },
        {
          "internalType": "uint256",
          "name": "_amount",
          "type": "uint256"
        },
        {
          "internalType": "bytes32",
          "name": "_hashlock",
          "type": "bytes32"
        },
        {
          "internalType": "uint64",
          "name": "_timelock",
          "type": "uint64"
        },
        {
          "internalType": "uint64",
          "name": "_dstChainId",
          "type": "uint64"
        },
        {
          "internalType": "address",
          "name": "_dstAddress",
          "type": "address"
        }
      ],
      "name": "transferOut",
      "outputs": [],
      "stateMutability": "nonpayable",
      "type": "function"
    },
    {
      "inputs": [
        {
          "internalType": "bytes32",
          "name": "",
          "type": "bytes32"
        }
      ],
      "name": "transfers",
      "outputs": [
        {
          "internalType": "address",
          "name": "sender",
          "type": "address"
        },
        {
          "internalType": "address",
          "name": "receiver",
          "type": "address"
        },
        {
          "internalType": "address",
          "name": "token",
          "type": "address"
        },
        {
          "internalType": "uint256",
          "name": "amount",
          "type": "uint256"
        },
        {
          "internalType": "bytes32",
          "name": "hashlock",
          "type": "bytes32"
        },
        {
          "internalType": "uint64",
          "name": "timelock",
          "type": "uint64"
        },
        {
          "internalType": "enum CBridge.TransferStatus",
          "name": "status",
          "type": "uint8"
        }
      ],
      "stateMutability": "view",
      "type": "function"
    }
  ],
  "transactionHash": "0xc9c282c628d766c0cfd7fd97815aa6e21bcfc431563e76b5111f268bd1c7d92d",
  "args": [],
  "solcInputHash": "dbd6a5918582338033f4deac04370020",
  "bytecode": "0x60806040523480156100195760008061001661001f565b50505b5061008a565b632a2a7adb598160e01b8152600481016020815285602082015260005b8681101561005757808601518282016040015260200161003c565b506020828760640184336000905af158600e01573d6000803e3d6000fd5b3d6001141558600a015760016000f35b505050565b611389806100996000396000f3fe6080604052348015610019576000806100166110b1565b50505b50600436106100705760003560e01c806357f784ba1161005957806357f784ba1461017d5780637249fbb6146101a9578063f63eba25146101cf57610070565b80633c64f04b1461007e57806346b4002714610114575b60008061007b6110b1565b50505b6100a46004803603602081101561009d5760008061009a6110b1565b50505b5035610234565b60405180886001600160a01b03168152602001876001600160a01b03168152602001866001600160a01b031681526020018581526020018481526020018367ffffffffffffffff1681526020018260038111156100fd57fe5b815260200197505050505050505060405180910390f35b61017b600480360360e0811015610133576000806101306110b1565b50505b506001600160a01b038135811691602081013582169160408201359160608101359167ffffffffffffffff608083013581169260a08101359091169160c090910135166102f8565b005b61017b6004803603604081101561019c576000806101996110b1565b50505b50803590602001356103ab565b61017b600480360360208110156101c8576000806101c56110b1565b50505b5035610647565b61017b600480360360e08110156101ee576000806101eb6110b1565b50505b506001600160a01b03813581169160208101359091169060408101359060608101359067ffffffffffffffff608082013581169160a08101359091169060c001356108c8565b6000602052806000526040600020905060008161024f61111c565b906101000a90046001600160a01b0316908060010160009061026f61111c565b906101000a90046001600160a01b0316908060020160009061028f61111c565b906101000a90046001600160a01b031690806003016102ac61111c565b90806004016102b961111c565b906000600582016102c861111c565b906101000a900467ffffffffffffffff1690806005016008906102e961111c565b906101000a900460ff16905087565b60006103078888888888610979565b90507f2991ed59ec037d5602bdc81fb1f3fec360f9e68fd3c1a4efb49fb3f66a88e021815a61033461117c565b8a8a8a8a8a8a8a6040519889526001600160a01b0397881660208a01529587166040808a01919091529487166060890152608088019390935260a087019190915267ffffffffffffffff90811660c08701521660e08501529116610100830152610120909101905180910390a15050505050505050565b600082815260208190526040812060405160e0810160405290816000826103d061111c565b6001600160a01b036101009290920a90041681526020016000600183016103f561111c565b6001600160a01b036101009290920a900416815260200160006002830161041a61111c565b6001600160a01b036101009290920a90041681526020016003820161043d61111c565b81526020016004820161044e61111c565b815260200160006005830161046161111c565b67ffffffffffffffff6101009290920a900416815260200160086005830161048761111c565b906101000a900460ff16600381111561049c57fe5b60038111156104a757fe5b905250905060018160c0015160038111156104be57fe5b146105185760405162461bcd60e51b815260206004820152601460248201527f6e6f742070656e64696e67207472616e736665720000000000000000000000006044820152606401604051809103906105156110b1565b50505b81604051602001808281526020019150506040516020818303038152906040528051906020012081608001511461059e5760405162461bcd60e51b815260206004820152601260248201527f696e636f727265637420707265696d616765000000000000000000000000000060448201526064016040518091039061059b6110b1565b50505b600083815260208190526002906040902060050168010000000000000000816105c561111c565b8160ff021916908360038111156105d857fe5b0217906105e36111c2565b5050506106088160200151826060015183604001516001600160a01b03169190610d61565b7fb7ae890c7a4721f7ed769dabfeee74f0e0f5bcdaad9cab432ccea4d9fa435b50838360405191825260208201526040908101905180910390a1505050565b600081815260208190526040812060405160e08101604052908160008261066c61111c565b6001600160a01b036101009290920a900416815260200160006001830161069161111c565b6001600160a01b036101009290920a90041681526020016000600283016106b661111c565b6001600160a01b036101009290920a9004168152602001600382016106d961111c565b8152602001600482016106ea61111c565b81526020016000600583016106fd61111c565b67ffffffffffffffff6101009290920a900416815260200160086005830161072361111c565b906101000a900460ff16600381111561073857fe5b600381111561074357fe5b905250905060018160c00151600381111561075a57fe5b146107b45760405162461bcd60e51b815260206004820152601460248201527f6e6f742070656e64696e67207472616e736665720000000000000000000000006044820152606401604051809103906107b16110b1565b50505b5a6107bd611210565b8160a0015167ffffffffffffffff1611156108275760405162461bcd60e51b815260206004820152601760248201527f74696d656c6f636b206e6f7420796574207061737365640000000000000000006044820152606401604051809103906108246110b1565b50505b6000828152602081905260039060409020600501680100000000000000008161084e61111c565b8160ff0219169083600381111561086157fe5b02179061086c6111c2565b5050506108918160000151826060015183604001516001600160a01b03169190610d61565b7f70a8f332cabb778f79acc5b97cbb4543970a2f1a34bd0773e4b3012931f752dc8260405190815260200160405180910390a15050565b60006108d78888888888610979565b90507f252a438c8e02dde6c26723283b3c95b1bf2550b882734770523f1d6767636f9c815a61090461117c565b8a8a8a8a8a8a8a6040519889526001600160a01b0397881660208a01529587166040808a0191909152949096166060880152608087019290925260a086015267ffffffffffffffff90811660c086015290921660e0840152610100830152610120909101905180910390a15050505050505050565b60008084116109d75760405162461bcd60e51b815260206004820152600e60248201527f696e76616c696420616d6f756e740000000000000000000000000000000000006044820152606401604051809103906109d46110b1565b50505b5a6109e0611210565b8267ffffffffffffffff1611610a455760405162461bcd60e51b815260206004820152601060248201527f696e76616c69642074696d656c6f636b00000000000000000000000000000000604482015260640160405180910390610a426110b1565b50505b60005a610a50611256565b90505a610a5b61117c565b8785836040516bffffffffffffffffffffffff19606095861b811660208301529390941b909216603484015260488301526068820152608801604051602081830303815290604052805190602001209150600080838152602081905260409020600501600890610ac961111c565b906101000a900460ff166003811115610ade57fe5b14610b385760405162461bcd60e51b815260206004820152600f60248201527f7472616e73666572206578697374730000000000000000000000000000000000604482015260640160405180910390610b356110b1565b50505b610baf5a610b4461117c565b5a63996d79a5598160e01b8152602081600483336000905af158600e01573d6000803e3d6000fd5b3d6001141558600a015760016000f35b8051925060005b6040811015610b9a57600082820152602001610b83565b5050506001600160a01b038916919088610f02565b6040518060e001604052805a610bc361117c565b6001600160a01b039081168252898116602083015288166040820152606081018790526080810186905267ffffffffffffffff851660a082015260c001600190526000838152602081905260409020815181600181610c2061111c565b816001600160a01b0302191690836001600160a01b0316021790610c426111c2565b505050602082015160018083019081610c5961111c565b816001600160a01b0302191690836001600160a01b0316021790610c7b6111c2565b505050604082015160028201600181610c9261111c565b816001600160a01b0302191690836001600160a01b0316021790610cb46111c2565b505050606082015181600301610cc86111c2565b5050608082015181600401610cdb6111c2565b505060a082015160058201600181610cf161111c565b8167ffffffffffffffff021916908367ffffffffffffffff16021790610d156111c2565b50505060c0820151600582016801000000000000000081610d3461111c565b8160ff02191690836003811115610d4757fe5b021790610d526111c2565b50505050505095945050505050565b6000806001600160a01b03851663a9059cbb60e01b85856040516001600160a01b0390921660248301526044820152606401604051602081830303815290604052906001600160e01b0319166020820180516001600160e01b031690911790526040518082805190602001908083835b60208310610df05780518252601f199092019160209182019101610dd1565b6001836020036101000a0380198251168184511680821785525050505050509050019150506000604051808303816000865a610e2a61129c565b5050505050509150503d8060008114610e5f576040513d603f01601f191681016040523d815291503d6000602084013e610e64565b606091505b5091509150818015610ea2575080511580610ea257506020810181516020811015610e9757600080610e946110b1565b50505b810190808051925050505b610efb5760405162461bcd60e51b815260206004820152601f60248201527f4552433230206f7065726174696f6e20646964206e6f74207375636365656400604482015260640160405180910390610ef86110b1565b50505b5050505050565b6000806001600160a01b0386166323b872dd60e01b8686866040516001600160a01b0393841660248201529190921660448201526064810191909152608401604051602081830303815290604052906001600160e01b0319166020820180516001600160e01b031690911790526040518082805190602001908083835b60208310610f9e5780518252601f199092019160209182019101610f7f565b6001836020036101000a0380198251168184511680821785525050505050509050019150506000604051808303816000865a610fd861129c565b5050505050509150503d806000811461100d576040513d603f01601f191681016040523d815291503d6000602084013e611012565b606091505b509150915081801561105057508051158061105057506020810181516020811015611045576000806110426110b1565b50505b810190808051925050505b6110a95760405162461bcd60e51b815260206004820152601f60248201527f4552433230206f7065726174696f6e20646964206e6f742073756363656564006044820152606401604051809103906110a66110b1565b50505b505050505050565b632a2a7adb598160e01b8152600481016020815285602082015260005b868110156110e95780860151828201604001526020016110ce565b506020828760640184336000905af158600e01573d6000803e3d6000fd5b3d6001141558600a015760016000f35b505050565b6303daa959598160e01b8152836004820152602081602483336000905af158600e01573d6000803e3d6000fd5b3d6001141558600a015760016000f35b8051935060005b604081101561117757600082820152602001611160565b505050565b6373509064598160e01b8152602081600483336000905af158600e01573d6000803e3d6000fd5b3d6001141558600a015760016000f35b80516000825293506020611160565b6322bd64c0598160e01b8152836004820152846024820152600081604483336000905af158600e01573d6000803e3d6000fd5b3d6001141558600a015760016000f35b600081526020611160565b63bdbf8c36598160e01b8152602081600483336000905af158600e01573d6000803e3d6000fd5b3d6001141558600a015760016000f35b80516000825293506020611160565b6390580256598160e01b8152602081600483336000905af158600e01573d6000803e3d6000fd5b3d6001141558600a015760016000f35b80516000825293506020611160565b6385979f76598160e01b81526112cf565b80808311156112b95750815b92915050565b80808310156112b9575090919050565b836004820152846024820152606060448201528760648201526084810160005b898110156113075780890151828201526020016112ef565b506060828a60a40184336000905af158600e01573d6000803e3d6000fd5b3d6001141558600a015760016000f35b815160408301513d6000853e8c8c82606087013350600060045af1505961135c8e3d6112bf565b8d0161136881876112ad565b5b8281101561137d5760008152602001611369565b50929d5050505050505056",
  "devdoc": {
    "kind": "dev",
    "methods": {
      "confirm(bytes32,bytes32)": {
        "details": "confirm a transfer.",
        "params": {
          "_preimage": "key for the hashlock",
          "_transferId": "Id of pending transfer."
        }
      },
      "refund(bytes32)": {
        "details": "refund a transfer after timeout.",
        "params": {
          "_transferId": "Id of pending transfer."
        }
      },
      "transferIn(address,address,uint256,bytes32,uint64,uint64,bytes32)": {
        "details": "transfer sets up a new inbound transfer with hash time lock."
      },
      "transferOut(address,address,uint256,bytes32,uint64,uint64,address)": {
        "details": "transfer sets up a new outbound transfer with hash time lock."
      }
    },
    "version": 1
  },
  "userdoc": {
    "kind": "user",
    "methods": {},
    "version": 1
  },
  "storageLayout": {
    "storage": [
      {
        "astId": 108,
        "contract": "contracts/CBridge.sol:CBridge",
        "label": "transfers",
        "offset": 0,
        "slot": "0",
        "type": "t_mapping(t_bytes32,t_struct(Transfer)104_storage)"
      }
    ],
    "types": {
      "t_address": {
        "encoding": "inplace",
        "label": "address",
        "numberOfBytes": "20"
      },
      "t_bytes32": {
        "encoding": "inplace",
        "label": "bytes32",
        "numberOfBytes": "32"
      },
      "t_enum(TransferStatus)89": {
        "encoding": "inplace",
        "label": "enum CBridge.TransferStatus",
        "numberOfBytes": "1"
      },
      "t_mapping(t_bytes32,t_struct(Transfer)104_storage)": {
        "encoding": "mapping",
        "key": "t_bytes32",
        "label": "mapping(bytes32 => struct CBridge.Transfer)",
        "numberOfBytes": "32",
        "value": "t_struct(Transfer)104_storage"
      },
      "t_struct(Transfer)104_storage": {
        "encoding": "inplace",
        "label": "struct CBridge.Transfer",
        "members": [
          {
            "astId": 91,
            "contract": "contracts/CBridge.sol:CBridge",
            "label": "sender",
            "offset": 0,
            "slot": "0",
            "type": "t_address"
          },
          {
            "astId": 93,
            "contract": "contracts/CBridge.sol:CBridge",
            "label": "receiver",
            "offset": 0,
            "slot": "1",
            "type": "t_address"
          },
          {
            "astId": 95,
            "contract": "contracts/CBridge.sol:CBridge",
            "label": "token",
            "offset": 0,
            "slot": "2",
            "type": "t_address"
          },
          {
            "astId": 97,
            "contract": "contracts/CBridge.sol:CBridge",
            "label": "amount",
            "offset": 0,
            "slot": "3",
            "type": "t_uint256"
          },
          {
            "astId": 99,
            "contract": "contracts/CBridge.sol:CBridge",
            "label": "hashlock",
            "offset": 0,
            "slot": "4",
            "type": "t_bytes32"
          },
          {
            "astId": 101,
            "contract": "contracts/CBridge.sol:CBridge",
            "label": "timelock",
            "offset": 0,
            "slot": "5",
            "type": "t_uint64"
          },
          {
            "astId": 103,
            "contract": "contracts/CBridge.sol:CBridge",
            "label": "status",
            "offset": 8,
            "slot": "5",
            "type": "t_enum(TransferStatus)89"
          }
        ],
        "numberOfBytes": "192"
      },
      "t_uint256": {
        "encoding": "inplace",
        "label": "uint256",
        "numberOfBytes": "32"
      },
      "t_uint64": {
        "encoding": "inplace",
        "label": "uint64",
        "numberOfBytes": "8"
      }
    }
  }
}